:100000000C9434000C9449000C9449000C94490061
:100010000C9449000C9449000C9449000C9449003C
:100020000C9449000C9449000C9449000C9449002C
:100030000C9449000C9449000C9449000C9449001C
:100040000C9449000C9449000C9449000C9449000C
:100050000C9449000C9449000C9449000C944900FC
:100060000C9449000C94490011241FBECFEFD8E036
:10007000DEBFCDBF11E0A0E0B1E0E6EBF2E002C0F0
:1000800005900D92A431B107D9F70E94F2000C94AB
:1000900059010C940000EAE7F0E087E0808380815A
:1000A0008068808380E480937C00089590917C0038
:1000B000907F90937C0090917C00892B80937C00B2
:1000C00080917A00806480937A0080917A0086FD26
:1000D000FCCF2091780090917900892F90E0982FA3
:1000E0008827820F911D0895CF93DF93FB01EB01C9
:1000F00024962AE030E0B9010E940901805D8A93CC
:10010000CB01EC17FD07B9F71482DF91CF91089569
:1001100080E091E00C94E6000F931F93CF93DF9360
:100120000AE011E0D0E0C0E0F80161918F01CE015A
:100130000E9447012196CA30D105B1F7DF91CF91D6
:100140001F910F910895CF93DF93D0E0C0E0CE01CF
:100150000E943F010E94CC002196CA30D105B9F718
:10016000DF91CF91089581E30C94CC0008959B0119
:10017000AC0160E874E88EE190E00E941D0121501E
:1001800031093093C5002093C40082E08093C00001
:1001900088E18093C10008959091C00095FFFCCF45
:1001A0008093C60008958091C00087FFFCCF8091A6
:1001B000C60008952091C00027FF06C02091C60008
:1001C000FC01208381E0089580E00895CF93DF93C0
:1001D000EC018991811103C0DF91CF9108950E94B4
:1001E000CC00F7CF60E072EC81E090E00E94B700B5
:1001F0000E94D300843751F0873729F08237C1F746
:100200000E94A300F5CF0E948C00F2CF0E94B300A1
:10021000EFCFAA1BBB1B51E107C0AA1FBB1FA6172C
:10022000B70710F0A61BB70B881F991F5A95A9F79F
:1002300080959095BC01CD010895A1E21A2EAA1BCC
:10024000BB1BFD010DC0AA1FBB1FEE1FFF1FA21786
:10025000B307E407F50720F0A21BB30BE40BF50B83
:10026000661F771F881F991F1A9469F7609570950C
:10027000809590959B01AC01BD01CF010895F9993E
:10028000FECF92BD81BDF89A992780B50895262F9B
:10029000F999FECF92BD81BDF89A019700B402167C
:1002A00039F01FBA20BD0FB6F894FA9AF99A0FBE2A
:0602B0000895F894FFCF51
:1002B60062656E62656E62656E0062656E2162657C
:0402C6006E210000A5
:00000001FF
